{
  "_format": "hh-sol-artifact-1",
  "contractName": "MockUniswapRouter",
  "sourceName": "contracts/MockUniswapRouter.sol",
  "abi": [
    {
      "inputs": [],
      "stateMutability": "nonpayable",
      "type": "constructor"
    },
    {
      "inputs": [],
      "name": "WETH",
      "outputs": [
        {
          "internalType": "address",
          "name": "",
          "type": "address"
        }
      ],
      "stateMutability": "view",
      "type": "function"
    },
    {
      "inputs": [],
      "name": "factory",
      "outputs": [
        {
          "internalType": "address",
          "name": "",
          "type": "address"
        }
      ],
      "stateMutability": "view",
      "type": "function"
    },
    {
      "inputs": [
        {
          "internalType": "uint256",
          "name": "amountIn",
          "type": "uint256"
        },
        {
          "internalType": "uint256",
          "name": "amountOutMin",
          "type": "uint256"
        },
        {
          "internalType": "address[]",
          "name": "path",
          "type": "address[]"
        },
        {
          "internalType": "address",
          "name": "to",
          "type": "address"
        },
        {
          "internalType": "uint256",
          "name": "deadline",
          "type": "uint256"
        }
      ],
      "name": "swapExactTokensForTokensSupportingFeeOnTransferTokens",
      "outputs": [],
      "stateMutability": "nonpayable",
      "type": "function"
    }
  ],
  "bytecode": "0x6080604052348015600f57600080fd5b5060008054306001600160a01b0319918216811783556001805490921617905561019890819061003f90396000f3fe608060405234801561001057600080fd5b50600436106100415760003560e01c80635c11d79514610046578063ad5c46481461005e578063c45a01551461008d575b600080fd5b61005c6100543660046100bc565b505050505050565b005b600154610071906001600160a01b031681565b6040516001600160a01b03909116815260200160405180910390f35b600054610071906001600160a01b031681565b80356001600160a01b03811681146100b757600080fd5b919050565b60008060008060008060a087890312156100d557600080fd5b8635955060208701359450604087013567ffffffffffffffff8111156100fa57600080fd5b8701601f8101891361010b57600080fd5b803567ffffffffffffffff81111561012257600080fd5b8960208260051b840101111561013757600080fd5b6020919091019450925061014d606088016100a0565b9598949750929591949360809092013592505056fea2646970667358221220c2c2f7bb4dcd39c3eb13845caabab2e87f00edf016378dbc9f7224c8ae67b2f964736f6c634300081c0033",
  "linkReferences": {},
  "deployedLinkReferences": {}
}